:0508A5005465737400AE
:0C088C00E4FFE4FE0EBE6EFC0FBF32F66F
:01089800223D
:10085800AD0712088CC2A7C2A5C2A68D80D2A7C2B6
:02086800A722C5
:10086A00AD0712088CC2A7D2A5C2A68D80D2A7C294
:02087A00A722B3
:100800008B088A09890A430780120858AB08AA098D
:10081000A90A12082B6013050AE50A7002050914DB
:0B082000F912082BFF12086A80E22288
:100844007F381208587F0C1208587F061208587F08
:04085400010208583D
:10087C001208447BFF7A0879A5E4FF12080080F384
:030000000208995A
:0C089900787FE4F6D8FD75810A02087C27
:10082B00BB010689828A83E0225002E722BBFE02CB
:09083B00E32289828A83E49322FE
:00000001FF
