:1011FB00E4F53AAF3A121085053AE53AC394034049
:0F120B00F2E4F5365389F0438901121327D2A973
:01121A0022B1
:03135400D2AF22F3
:03000B00020E18CA
:100E1800C0E0C0F0C083C082C0D075D000C000C0A0
:0D0E280001C002C003C004C005C006C00721
:100E3500121327E4FFEF75F007A42421F8E6FC0858
:100E4500E64C6046EF75F007A42423F8E6FC08E6B7
:100E55004C7028EF75F007A42427F806EF75F00706
:100E6500A42425F8E6FC08E6FD4C601EEF75F007A6
:100E7500A42423F8A60408A605800FEF75F007A49F
:0E0E85002423F808E616187001160FBF03A705
:100E9300D007D006D005D004D003D002D001D000B3
:0B0EA300D0D0D082D083D0F0D0E0325D
:0B132700C28C758A18758CFCD28C22D9
:0C130F00C2AF53E71843E70143E7802218
:0913470053E77FE4F5E6D2AF2282
:0B13320012130F75E64675E6B90022A5
:10127800AD07AC068CE3EDF5E453E5F843E5011260
:081288001332121347AFE222FA
:1012BF00EE54FEFEF5E3E4F5E453E5F843E50312DF
:0512CF00133202134779
:1012A800AB07AA068AE3EBF5E453E5F843E5028DBC
:0712B800E21213320213479A
:0313570000002271
:10111200D2B3121357C2B27F007E007D007C002042
:10112200B3FDE4FBD2B27801120D31C2B230B30D7D
:10113200EF2401FFE43EFEE43DFDE43CFC0BBB1862
:0C114200E3D2B2ED6480FD121357C2B27C
:01114E00227E
:10121B00E4FDFCC3ED9FEC9E5015E4FBFA0BBB0009
:0F122B00010AEB647B4A70F50DBD00010C80E4F5
:01123A002291
:1012D400A907C2A57F017E0012121BD2A789801222
:0512E400121BC2A7224D
:1012E900A907D2A57F017E0012121B8980D2A712FD
:0512F900121BC2A72238
:1011B1008B3A8A3B893CAB3AAA3BA93C120CE2FF31
:1011C100D3940040101212E97401253CF53CE4353A
:0611D1003BF53B80E1222A
:10129000C2A7C2A67F381212D47F0C1212D47F06C6
:0812A0001212D47F010212D4E6
:10125B001212FE1211FB7E087F007B207A4E7DE876
:0D126B007C03120F3A121354120F9580FBF2
:031186000136002F
:100F9500E4F53AE53A75F007A42427F8E6D394007A
:100FA5004032E53A75F007A42421F8E6FE08E6AAE2
:100FB50006F9120D44E53A75F007A42427F816E55D
:100FC5003A75F007A42425F8E6FE08E64E7005AF4D
:100FD5003A121085053AE53AC3940340B612114F0B
:030FE500021350A4
:040F3A008E3A8F3B21
:100F3E00E4FFEF75F007A42421F8E6F58308E645F3
:100F4E00836009EFC3940350030F80E6BF03067559
:100F5E0036017F0322EF75F007A42421F8A63A0884
:100F6E00A63BEF75F007A42423F8A60408A605EF08
:100F7E0075F007A42425F8A60208A603EF75F0075E
:060F8E00A42427F8E4F69C
:010F9400223A
:10108500EF75F007A42421F8E6FC08E64C70077517
:101095003602D2008002C200EF75F007A42421F8C1
:1010A500E4F608F6EF75F007A42423F8E4F608F64D
:1010B500EF75F007A42425F8E4F608F6EF75F007B8
:0810C500A42427F8E4F6A200C0
:0110CD002200
:10114F00E5366537601BC374FF9536F5A0853637D6
:10115F00E53660077538EA75396022E4F538F539F8
:10116F0022E5394538600FE5391539700215381405
:07117F0045387002F536222D
:0413500043870122AC
:10123B0057656C636F6D6520746F20757365210046
:10124B005765696768743D004B67004D41583D0019
:10118900011100041B00000000041200000000040B
:101199001700000000040800000000040D01000011
:0711A90000010C000116001B
:1012FE001212907F801212D47BFF7A12793B021168
:01130E00B12D
:1008000012131B12131B7FD07E071211DB12131B56
:1008100012131B7F011212D47F007E201212788FD8
:100820000D7F017E201212788F0E7F027E20121221
:10083000788F0F7F037E201212788F10AF0EEF3368
:1008400095E0FE7C007D64120CFBAA06AB07AF0DA1
:10085000EF3395E0FE7C037DE8120CFBEF2BFBEE03
:100860003AFAAF0FEF3395E0FE7C007D0A120CFBE5
:10087000EF2BFFEE3AFEAD10ED3395E0FCEF2DFFD0
:10088000EE3CFE3395E08F0B8E0AF509F508120F4A
:10089000E87F801212D47BFF7A12794B1211B1E4F7
:1008A0007B107A27F9F8AF1AAE19AD18AC171210F1
:1008B000CEAC00AD01AE02AF03E47BE87A03F9F8F9
:1008C0001210CEEF2430FF1212E97F2E1212E9E44B
:1008D0007BE87A03F9F8AF1AAE19AD18AC1712100D
:1008E000CEAC00AD01AE02AF03E47B64FAF9F812BE
:1008F00010CEEF2430FF1212E9E47B64FAF9F8AF6E
:100900001AAE19AD18AC171210CEAC00AD01AE0284
:10091000AF03E47B0AFAF9F81210CEEF2430FF128D
:1009200012E9E47B0AFAF9F8AF1AAE19AD18AC1760
:100930001210CEEB2430FF1212E97BFF7A127953AA
:100940001211B112103A8F11E5116401600302090E
:10095000DA050CE50C640560030209DAF50CFF7E8C
:10096000201212BFAD0D7F007E201212A8AD0E7FA7
:10097000017E201212A8AD0F7F027E201212A8ADB8
:10098000107F037E201212A8AF0EEF3395E0FE7C9D
:10099000007D64120CFBAA06AB07AF0DEF3395E0A8
:1009A000FE7C037DE8120CFBEF2BFBEE3AFAAF0F57
:1009B000EF3395E0FE7C007D0A120CFBEF2BFFEE7F
:1009C0003AFEAD10ED3395E0FCEF2DFFEE3CFE332B
:1009D00095E08F0B8E0AF509F508E511B4021CE5C8
:1009E0000C6018240CF806740C250CF8E6C364801F
:1009F000948A4007740C250CF8E4F6E511B4031C46
:100A0000E50C6018240CF816740C250CF8E6D36479
:100A100080947F5007740C250CF87609E511B40416
:100A20000312131BE50C600A0516E516B40603E471
:100A3000F516E50C14602E14605B147003020ACDE9
:100A4000147003020B0D24046003020B547FC012C8
:100A500012D47BFF7A1279561211B1E50D2430FFC2
:100A60001212E980217FC01212D47BFF7A127956CC
:100A70001211B1E516C394035007E50D2430FF8031
:100A8000027F201212E97F2E1212E9E50E2430FFB8
:100A90001212E9802E7FC01212D47BFF7A1279568F
:100AA0001211B1E50D2430FF1212E97F2E1212E966
:100AB000E516C394035007E50E2430FF80027F2023
:100AC0001212E9E50F2430FF1212E980367FC012BE
:100AD00012D47BFF7A1279561211B1E50D2430FF42
:100AE0001212E97F2E1212E9E50E2430FF1212E9EC
:100AF000E516C394035007E50F2430FF80027F20E2
:100B00001212E9E5102430FF1212E9803E7FC01274
:100B100012D47BFF7A1279561211B1E50D2430FF01
:100B20001212E97F2E1212E9E50E2430FF1212E9AB
:100B3000E50F2430FF1212E9E516C394035007E5D0
:100B4000102430FF80027F201212E97BFF7A127995
:100B5000531211B1AF0BAE0AAD09AC08AB1AAA190A
:100B6000A918A817C3120D1B500FE47F887E13FD30
:100B7000FCA817C3120D1B4005C2A402088ED2A404
:030B800002088EDA
:100FE8001211128F1A8E198D188C17C3E51A9515C0
:100FF800F51AE5199514F519E5189513F518E51777
:101008009512F517AF1AAE19AD18FC33401AEC1249
:101018000C23E4FBFA79D77843120B86120C618F04
:101028001A8E198D188C1722E4F51AF519F518F58A
:0210380017227D
:0C131B001211128F158E148D138C1222EB
:0411D7007F0A7E000D
:1011DB00E4FDFCC3ED9FEC9E5015E4FBFA0BBB004A
:0F11EB00010AEB647B4A70F50DBD00010C80E436
:0111FA0022D2
:0A133D00C2A41211D7D2A40211DBE2
:10103A0020940F1211D720940912133D3094FD7F8A
:10104A00012220950F1211D720950912133D3095D0
:10105A00FD7F022220960F1211D720960912133D06
:10106A003096FD7F032220970F1211D7209709127D
:0B107A00133D3097FD7F04227F002211
:100B8300020CD7EC5D046005E859047003020CCD38
:100B9300120C98580460F6EC4860F2EC7004FDFE09
:100BA300FF22C860DB2481C85009C3986002500645
:100BB300020CD49850CAF582E9294B4A7005AB82DE
:100BC300020CC375F0007C1A7880C3EF9BEE9AED9C
:100BD30099400DC3EF9BFFEE9AFEED99FDE842F0BD
:100BE300DC23ACF0D0E0FFD0E0FED0E0FDAB822010
:100BF300E7101BEB60BAEC2CFCEF33FFEE33FEED9A
:100C030033FD020CAFE803F830E705C0F075F000E0
:100C1300EF2FFFEE33FEED33FD40B830E7C280AA7D
:100C230075F020800E75F010800575F0087D007E4C
:100C3300007F003392D530D503120D0DEC334010F5
:100C4300EF33FFEE33FEED33FDEC33FCD5F0ED2255
:0E0C5300E5F0247EA2D513CC92E7CDCEFF2291
:100C6100EDD2E7CD33EC3392D524814006E4FFFE8B
:100C7100FDFC22FCE4CFCECDCC24E0501174FF80EA
:100C8100EDC3CC13CCCD13CDCE13CECF13CF047087
:070C9100F030D5DE020D0D6D
:100C9800E9D2E7C933E833F892D5EDD2E7CD33ECA2
:070CA80033FC5002B2D5221B
:100CAF00EC30E7100FBF000C0EBE00080DBD0004A6
:100CBF000BEB6014A2D5EB13FCED92E7FD2274FF52
:100CCF00FCFDFEFF22E480F8A2D574FF13FC7D80AB
:030CDF00E480EFBF
:03000000020EAE3F
:0C0EAE00787FE4F6D8FD75813C020EF55B
:100CE200BB010689828A83E0225002E722BBFE0210
:090CF200E32289828A83E4932243
:100CFB00EF8DF0A4A8F0CF8CF0A428CE8DF0A42E0D
:020D0B00FE22C6
:1010CE00C2D5E830E70FB2D5E4C39BFBE49AFAE44D
:1010DE0099F9E498F8EC30E717B2D5121104120D15
:1010EE0086E4C39BFBE49AFAE499F9E498F880034A
:1010FE00120D8630D50DE4C39FFFE49EFEE49DFDE8
:04110E00E49CFC223F
:0E0D0D00C3E49FFFE49EFEE49DFDE49CFC22F7
:100D1B00EB9FF5F0EA9E42F0E99D42F0EC6480C84F
:060D2B0064809845F022EF
:100D3100E8600FEFC333FFEE33FEED33FDEC33FC20
:030D4100D8F122C4
:060D44008A838982E4733A
:100EBA0002125BE493A3F8E493A34003F68001F2E1
:100ECA0008DFF48029E493A3F85407240CC8C33339
:100EDA00C4540F4420C8834004F456800146F6DF08
:100EEA00E4800B0102040810204080901186E47E01
:100EFA00019360BCA3FF543F30E509541FFEE493FD
:100F0A00A360010ECF54C025E060A840B8E493A3C3
:100F1A00FAE493A3F8E493A3C8C582C8CAC583CAEE
:100F2A00F0A3C8C582C8CAC583CADFE9DEE780BEA6
:0111B000003E
:100D4A0075F008758200EF2FFFEE33FECD33CDCC60
:100D5A0033CCC58233C5829BED9AEC99E5829840E3
:100D6A000CF582EE9BFEED9AFDEC99FC0FD5F0D6C0
:100D7A00E4CEFBE4CDFAE4CCF9A88222B800C1B9EA
:100D8A000059BA002DEC8BF084CFCECDFCE5F0CB28
:100D9A00F97818EF2FFFEE33FEED33FDEC33FCEB61
:100DAA0033FB10D703994004EB99FB0FD8E5E4F91C
:100DBA00FA227818EF2FFFEE33FEED33FDEC33FC09
:100DCA00C933C910D7059BE99A4007EC9BFCE99AFD
:100DDA00F90FD8E0E4C9FAE4CCFB2275F010EF2F42
:100DEA00FFEE33FEED33FDCC33CCC833C810D70742
:100DFA009BEC9AE899400AED9BFDEC9AFCE899F87D
:0E0E0A000FD5F0DAE4CDFBE4CCFAE4C8F9220F
:00000001FF
