:10103F0057656C636F6D6520746F20757365210044
:10104F005765696768743D004B67004D41583D0017
:100FCD00011100041B0000000004120000000004C9
:100FDD001700000000040800000000040D010000CF
:070FED0000010C00011600D9
:1008000012107F7F801210C67BFF7A10793F120F83
:10081000F51211051211057FD07E0712101F12115B
:10082000051211057F011210C67F007E201210975D
:100830008F0D7F017E201210978F0E7F027E201277
:1008400010978F0F7F037E201210978F10AF0EEF3F
:100850003395E0FE7C007D64120D0CAA06AB07AF59
:100860000DEF3395E0FE7C037DE8120D0CEF2BFBC2
:10087000EE3AFAAF0FEF3395E0FE7C007D0A120DE1
:100880000CEF2BFFEE3AFEAD10ED3395E0FCEF2DB3
:10089000FFEE3CFE3395E08F0B8E0AF509F508124A
:1008A0000EAF7F801210C67BFF7A10794F120FF5C2
:1008B000E47B107A27F9F8AF1AAE19AD18AC17120D
:1008C0000F4CAC00AD01AE02AF03E47BE87A03F954
:1008D000F8120F4CEF2430FF1210DB7F2E1210DBCA
:1008E000E47BE87A03F9F8AF1AAE19AD18AC171229
:1008F0000F4CAC00AD01AE02AF03E47B64FAF9F833
:10090000120F4CEF2430FF1210DBE47B64FAF9F88D
:10091000AF1AAE19AD18AC17120F4CAC00AD01AE4A
:1009200002AF03E47B0AFAF9F8120F4CEF2430FF10
:100930001210DBE47B0AFAF9F8AF1AAE19AD18AC65
:1009400017120F4CEB2430FF1210DB7BFF7A10796B
:1009500057120FF5120F018F11E5116401600302A8
:1009600009EB050CE50C640560030209EBF50CFFCF
:100970007E201210F0AD0D7F007E201210AFAD0E64
:100980007F017E201210AFAD0F7F027E201210AFCC
:10099000AD107F037E201210AFAF0EEF3395E0FE57
:1009A0007C007D64120D0CAA06AB07AF0DEF3395EA
:1009B000E0FE7C037DE8120D0CEF2BFBEE3AFAAF64
:1009C0000FEF3395E0FE7C007D0A120D0CEF2BFF3C
:1009D000EE3AFEAD10ED3395E0FCEF2DFFEE3CFE60
:1009E0003395E08F0B8E0AF509F508E511B4021C6A
:1009F000E50C6018240CF806740C250CF8E6C364AA
:100A000080948A4007740C250CF8E4F6E511B403D1
:100A10001CE50C6018240CF816740C250CF8E6D3B1
:100A20006480947F5007740C250CF87609E511B4A6
:100A30000403121105E50C600A0516E516B4060359
:100A4000E4F516E50C14602E14605B147003020AC2
:100A5000DE147003020B1E24046003020B657FC0CA
:100A60001210C67BFF7A10795A120FF5E50D24306B
:100A7000FF1210DB80217FC01210C67BFF7A107935
:100A80005A120FF5E516C394035007E50D2430FF05
:100A900080027F201210DB7F2E1210DBE50E243047
:100AA000FF1210DB802E7FC01210C67BFF7A1079F8
:100AB0005A120FF5E50D2430FF1210DB7F2E1210B5
:100AC000DBE516C394035007E50E2430FF80027F58
:100AD000201210DBE50F2430FF1210DB80367FC0C0
:100AE0001210C67BFF7A10795A120FF5E50D2430EB
:100AF000FF1210DB7F2E1210DBE50E2430FF1210E8
:100B0000DBE516C394035007E50F2430FF80027F16
:100B1000201210DBE5102430FF1210DB803E7FC076
:100B20001210C67BFF7A10795A120FF5E50D2430AA
:100B3000FF1210DB7F2E1210DBE50E2430FF1210A7
:100B4000DBE50F2430FF1210DBE516C394035007DA
:100B5000E5102430FF80027F201210DB7BFF7A102B
:100B60007957120FF5AF0BAE0AAD09AC08AB1AAA54
:100B700019A918A817C3120D2C500FE47F887E13F3
:100B8000FDFCA817C3120D2C4005C2A402089FD279
:040B9000A402089F14
:100EAF00120F908F1A8E198D188C17C3E51A95157E
:100EBF00F51AE5199514F519E5189513F518E517B1
:100ECF009512F517AF1AAE19AD18FC33401AEC1284
:100EDF000C34E4FBFA79D77843120B97120C728F0C
:100EEF001A8E198D188C1722E4F51AF519F518F5C5
:020EFF001722B8
:0C110500120F908F158E148D138C122287
:04101B007F0A7E00CA
:10101F00E4FDFCC3ED9FEC9E5015E4FBFA0BBB0007
:0F102F00010AEB647B4A70F50DBD00010C80E4F3
:01103E00228F
:0A112800C2A412101BD2A402101F73
:100F010020940F12101B2094091211283094FD7F98
:100F1100012220950F12101B2095091211283095DE
:100F2100FD7F022220960F12101B20960912112814
:100F31003096FD7F032220970F12101B2097091274
:0B0F410011283097FD7F04227F002262
:10105F00E4FDFCC3ED9FEC9E5015E4FBFA0BBB00C7
:0F106F00010AEB647B4A70F50DBD00010C80E4B3
:01107E00224F
:1010C600A907C2907F017E0012105FD2A589801207
:0510D600105FC2A5221D
:1010DB00A907D2907F017E0012105F8980D2A512E2
:0510EB00105FC2A52208
:100FF5008B1F8A208921AB1FAA20A921120CF3FF80
:10100500D3940040101210DB74012521F521E4353D
:0610150020F52080E1221D
:10107F00C2A5C2917F381210C67F0C1210C67F0610
:08108F001210C67F010210C619
:03113B000000228F
:100F9000D2B312113BC2B27F007E007D007C0020E4
:100FA000B3FDE4FBD2B27801120D42C2B230B30DF0
:100FB000EF2401FFE43EFEE43DFDE43CFC0BBB18E6
:0C0FC000E3D2B2ED6480FD12113BC2B21E
:010FCC002202
:0C111100C2AF53E71843E70143E7802218
:0911320053E77FE4F5E6D2AF2299
:0B111D0012111175E64675E6B90022BC
:10109700AD07AC068CE3EDF5E453E5F843E5011243
:0810A700111D121132AFE2220B
:1010F000EE54FEFEF5E3E4F5E453E5F843E50312B0
:05110000111D02113277
:1010AF00AB07AA068AE3EBF5E453E5F843E5028DB7
:0710BF00E212111D021132C3
:100B9400020CE8EC5D046005E859047003020CDE05
:100BA400120CA9580460F6EC4860F2EC7004FDFEE7
:100BB400FF22C860DB2481C85009C3986002500634
:100BC400020CE59850CAF582E9294B4A7005AB82BC
:100BD400020CD475F0007C1A7880C3EF9BEE9AED7A
:100BE40099400DC3EF9BFFEE9AFEED99FDE842F0AC
:100BF400DC23ACF0D0E0FFD0E0FED0E0FDAB8220FF
:100C0400E7101BEB60BAEC2CFCEF33FFEE33FEED88
:100C140033FD020CC0E803F830E705C0F075F000BE
:100C2400EF2FFFEE33FEED33FD40B830E7C280AA6C
:100C340075F020800E75F010800575F0087D007E3B
:100C4400007F003392D530D503120D1EEC334010D3
:100C5400EF33FFEE33FEED33FDEC33FCD5F0ED2244
:0E0C6400E5F0247EA2D513CC92E7CDCEFF2280
:100C7200EDD2E7CD33EC3392D524814006E4FFFE7A
:100C8200FDFC22FCE4CFCECDCC24E0501174FF80D9
:100C9200EDC3CC13CCCD13CDCE13CECF13CF047076
:070CA200F030D5DE020D1E4B
:100CA900E9D2E7C933E833F892D5EDD2E7CD33EC91
:070CB90033FC5002B2D5220A
:100CC000EC30E7100FBF000C0EBE00080DBD000495
:100CD0000BEB6014A2D5EB13FCED92E7FD2274FF41
:100CE000FCFDFEFF22E480F8A2D574FF13FC7D809A
:030CF000E480EFAE
:03000000020E23CA
:0C0E2300787FE4F6D8FD758121020E6A8C
:100CF300BB010689828A83E0225002E722BBFE02FF
:090D0300E32289828A83E4932231
:100D0C00EF8DF0A4A8F0CF8CF0A428CE8DF0A42EFB
:020D1C00FE22B5
:100F4C00C2D5E830E70FB2D5E4C39BFBE49AFAE4D0
:100F5C0099F9E498F8EC30E717B2D5120F82120D1C
:100F6C0091E4C39BFBE49AFAE499F9E498F88003C2
:100F7C00120D9130D50DE4C39FFFE49EFEE49DFD60
:040F8C00E49CFC22C3
:0E0D1E00C3E49FFFE49EFEE49DFDE49CFC22E6
:100D2C00EB9FF5F0EA9E42F0E99D42F0EC6480C83E
:060D3C0064809845F022DE
:100D4200E8600FEFC333FFEE33FEED33FDEC33FC0F
:030D5200D8F122B3
:100E2F00020800E493A3F8E493A34003F68001F2D1
:100E3F0008DFF48029E493A3F85407240CC8C333C4
:100E4F00C4540F4420C8834004F456800146F6DF93
:100E5F00E4800B0102040810204080900FCDE47E47
:100E6F00019360BCA3FF543F30E509541FFEE49388
:100E7F00A360010ECF54C025E060A840B8E493A34F
:100E8F00FAE493A3F8E493A3C8C582C8CAC583CA7A
:100E9F00F0A3C8C582C8CAC583CADFE9DEE780BE32
:010FF40000FC
:100D550075F008758200EF2FFFEE33FECD33CDCC55
:100D650033CCC58233C5829BED9AEC99E5829840D8
:100D75000CF582EE9BFEED9AFDEC99FC0FD5F0D6B5
:100D8500E4CEFBE4CDFAE4CCF9A88222B800C1B9DF
:100D95000059BA002DEC8BF084CFCECDFCE5F0CB1D
:100DA500F97818EF2FFFEE33FEED33FDEC33FCEB56
:100DB50033FB10D703994004EB99FB0FD8E5E4F911
:100DC500FA227818EF2FFFEE33FEED33FDEC33FCFE
:100DD500C933C910D7059BE99A4007EC9BFCE99AF2
:100DE500F90FD8E0E4C9FAE4CCFB2275F010EF2F37
:100DF500FFEE33FEED33FDCC33CCC833C810D70737
:100E05009BEC9AE899400AED9BFDEC9AFCE899F871
:0E0E15000FD5F0DAE4CDFBE4CCFAE4C8F92204
:00000001FF
